{
  "contractName": "GadgetsContract",
  "abi": [
    {
      "inputs": [],
      "stateMutability": "nonpayable",
      "type": "constructor"
    },
    {
      "anonymous": false,
      "inputs": [
        {
          "indexed": false,
          "internalType": "string",
          "name": "message",
          "type": "string"
        }
      ],
      "name": "DebugLog",
      "type": "event"
    },
    {
      "anonymous": false,
      "inputs": [
        {
          "indexed": false,
          "internalType": "uint256",
          "name": "gadgetId",
          "type": "uint256"
        },
        {
          "indexed": false,
          "internalType": "string",
          "name": "gadgetName",
          "type": "string"
        },
        {
          "indexed": false,
          "internalType": "string",
          "name": "gadgetPic",
          "type": "string"
        },
        {
          "indexed": false,
          "internalType": "string",
          "name": "storageSpace",
          "type": "string"
        },
        {
          "indexed": false,
          "internalType": "string",
          "name": "screenSize",
          "type": "string"
        },
        {
          "indexed": false,
          "internalType": "string",
          "name": "gadgetColour",
          "type": "string"
        },
        {
          "indexed": false,
          "internalType": "string",
          "name": "gadgetCategory",
          "type": "string"
        },
        {
          "indexed": false,
          "internalType": "string",
          "name": "gadgetBrand",
          "type": "string"
        },
        {
          "indexed": false,
          "internalType": "uint256",
          "name": "price",
          "type": "uint256"
        },
        {
          "indexed": false,
          "internalType": "address",
          "name": "ownerId",
          "type": "address"
        },
        {
          "indexed": false,
          "internalType": "enum GadgetsContract.gadgetStatus",
          "name": "status",
          "type": "uint8"
        }
      ],
      "name": "GadgetCreated",
      "type": "event"
    },
    {
      "anonymous": false,
      "inputs": [
        {
          "indexed": false,
          "internalType": "uint256",
          "name": "id",
          "type": "uint256"
        },
        {
          "indexed": false,
          "internalType": "string",
          "name": "name",
          "type": "string"
        },
        {
          "indexed": false,
          "internalType": "uint256",
          "name": "price",
          "type": "uint256"
        },
        {
          "indexed": false,
          "internalType": "address payable",
          "name": "owner",
          "type": "address"
        },
        {
          "indexed": false,
          "internalType": "enum GadgetsContract.gadgetStatus",
          "name": "status",
          "type": "uint8"
        }
      ],
      "name": "GadgetPurchased",
      "type": "event"
    },
    {
      "inputs": [
        {
          "internalType": "uint256",
          "name": "",
          "type": "uint256"
        }
      ],
      "name": "listOfGadgets",
      "outputs": [
        {
          "internalType": "uint256",
          "name": "gadgetId",
          "type": "uint256"
        },
        {
          "internalType": "string",
          "name": "gadgetName",
          "type": "string"
        },
        {
          "internalType": "string",
          "name": "gadgetPic",
          "type": "string"
        },
        {
          "internalType": "string",
          "name": "storageSpace",
          "type": "string"
        },
        {
          "internalType": "string",
          "name": "screenSize",
          "type": "string"
        },
        {
          "internalType": "string",
          "name": "gadgetColour",
          "type": "string"
        },
        {
          "internalType": "string",
          "name": "gadgetCategory",
          "type": "string"
        },
        {
          "internalType": "string",
          "name": "gadgetBrand",
          "type": "string"
        },
        {
          "internalType": "uint256",
          "name": "price",
          "type": "uint256"
        },
        {
          "internalType": "address",
          "name": "ownerId",
          "type": "address"
        },
        {
          "internalType": "enum GadgetsContract.gadgetStatus",
          "name": "status",
          "type": "uint8"
        }
      ],
      "stateMutability": "view",
      "type": "function"
    },
    {
      "inputs": [
        {
          "internalType": "string",
          "name": "_gadgetName",
          "type": "string"
        },
        {
          "internalType": "string",
          "name": "_gadgetPic",
          "type": "string"
        },
        {
          "internalType": "string",
          "name": "_storageSpace",
          "type": "string"
        },
        {
          "internalType": "string",
          "name": "_screenSize",
          "type": "string"
        },
        {
          "internalType": "string",
          "name": "_gadgetColour",
          "type": "string"
        },
        {
          "internalType": "string",
          "name": "_gadgetCategory",
          "type": "string"
        },
        {
          "internalType": "string",
          "name": "_gadgetBrand",
          "type": "string"
        },
        {
          "internalType": "uint256",
          "name": "_price",
          "type": "uint256"
        }
      ],
      "name": "addGadget",
      "outputs": [],
      "stateMutability": "nonpayable",
      "type": "function"
    },
    {
      "inputs": [
        {
          "internalType": "uint256",
          "name": "index",
          "type": "uint256"
        }
      ],
      "name": "getGadgetDetails",
      "outputs": [
        {
          "components": [
            {
              "internalType": "uint256",
              "name": "gadgetId",
              "type": "uint256"
            },
            {
              "internalType": "string",
              "name": "gadgetName",
              "type": "string"
            },
            {
              "internalType": "string",
              "name": "gadgetPic",
              "type": "string"
            },
            {
              "internalType": "string",
              "name": "storageSpace",
              "type": "string"
            },
            {
              "internalType": "string",
              "name": "screenSize",
              "type": "string"
            },
            {
              "internalType": "string",
              "name": "gadgetColour",
              "type": "string"
            },
            {
              "internalType": "string",
              "name": "gadgetCategory",
              "type": "string"
            },
            {
              "internalType": "string",
              "name": "gadgetBrand",
              "type": "string"
            },
            {
              "internalType": "uint256",
              "name": "price",
              "type": "uint256"
            },
            {
              "internalType": "address",
              "name": "ownerId",
              "type": "address"
            },
            {
              "internalType": "enum GadgetsContract.gadgetStatus",
              "name": "status",
              "type": "uint8"
            }
          ],
          "internalType": "struct GadgetsContract.GadgetDetails",
          "name": "",
          "type": "tuple"
        }
      ],
      "stateMutability": "view",
      "type": "function"
    },
    {
      "inputs": [],
      "name": "getNoOfGadgets",
      "outputs": [
        {
          "internalType": "uint256",
          "name": "",
          "type": "uint256"
        }
      ],
      "stateMutability": "view",
      "type": "function"
    },
    {
      "inputs": [],
      "name": "getCompanyName",
      "outputs": [
        {
          "internalType": "string",
          "name": "",
          "type": "string"
        }
      ],
      "stateMutability": "view",
      "type": "function"
    },
    {
      "inputs": [
        {
          "internalType": "uint256",
          "name": "_id",
          "type": "uint256"
        }
      ],
      "name": "purchaseGadget",
      "outputs": [],
      "stateMutability": "payable",
      "type": "function"
    }
  ],
  "bytecode": "0x60806040523480156200001157600080fd5b5060006001819055506001600260006101000a81548160ff0219169083600181111562000067577f4e487b7100000000000000000000000000000000000000000000000000000000600052602160045260246000fd5b02179055506040518060400160405280601181526020017f436861696e54656368204761646765747300000000000000000000000000000081525060009080519060200190620000b9929190620000c0565b50620001d5565b828054620000ce9062000170565b90600052602060002090601f016020900481019282620000f257600085556200013e565b82601f106200010d57805160ff19168380011785556200013e565b828001600101855582156200013e579182015b828111156200013d57825182559160200191906001019062000120565b5b5090506200014d919062000151565b5090565b5b808211156200016c57600081600090555060010162000152565b5090565b600060028204905060018216806200018957607f821691505b60208210811415620001a0576200019f620001a6565b5b50919050565b7f4e487b7100000000000000000000000000000000000000000000000000000000600052602260045260246000fd5b61232580620001e56000396000f3fe6080604052600436106100555760003560e01c806309f9d48e1461005a5780630c827573146100a15780631e95ea20146100ca57806343cfbd65146100f55780634cb13699146101205780637bd2ca001461015d575b600080fd5b34801561006657600080fd5b50610081600480360381019061007c9190611b07565b610179565b6040516100989b9a99989796959493929190611f03565b60405180910390f35b3480156100ad57600080fd5b506100c860048036038101906100c391906119ad565b6105b8565b005b3480156100d657600080fd5b506100df61084b565b6040516100ec9190611ee8565b60405180910390f35b34801561010157600080fd5b5061010a610855565b6040516101179190611e24565b60405180910390f35b34801561012c57600080fd5b5061014760048036038101906101429190611b07565b6108e7565b6040516101549190611ec6565b60405180910390f35b61017760048036038101906101729190611b07565b610e04565b005b60036020528060005260406000206000915090508060000154908060010180546101a29061217c565b80601f01602080910402602001604051908101604052809291908181526020018280546101ce9061217c565b801561021b5780601f106101f05761010080835404028352916020019161021b565b820191906000526020600020905b8154815290600101906020018083116101fe57829003601f168201915b5050505050908060020180546102309061217c565b80601f016020809104026020016040519081016040528092919081815260200182805461025c9061217c565b80156102a95780601f1061027e576101008083540402835291602001916102a9565b820191906000526020600020905b81548152906001019060200180831161028c57829003601f168201915b5050505050908060030180546102be9061217c565b80601f01602080910402602001604051908101604052809291908181526020018280546102ea9061217c565b80156103375780601f1061030c57610100808354040283529160200191610337565b820191906000526020600020905b81548152906001019060200180831161031a57829003601f168201915b50505050509080600401805461034c9061217c565b80601f01602080910402602001604051908101604052809291908181526020018280546103789061217c565b80156103c55780601f1061039a576101008083540402835291602001916103c5565b820191906000526020600020905b8154815290600101906020018083116103a857829003601f168201915b5050505050908060050180546103da9061217c565b80601f01602080910402602001604051908101604052809291908181526020018280546104069061217c565b80156104535780601f1061042857610100808354040283529160200191610453565b820191906000526020600020905b81548152906001019060200180831161043657829003601f168201915b5050505050908060060180546104689061217c565b80601f01602080910402602001604051908101604052809291908181526020018280546104949061217c565b80156104e15780601f106104b6576101008083540402835291602001916104e1565b820191906000526020600020905b8154815290600101906020018083116104c457829003601f168201915b5050505050908060070180546104f69061217c565b80601f01602080910402602001604051908101604052809291908181526020018280546105229061217c565b801561056f5780601f106105445761010080835404028352916020019161056f565b820191906000526020600020905b81548152906001019060200180831161055257829003601f168201915b5050505050908060080154908060090160009054906101000a900473ffffffffffffffffffffffffffffffffffffffff16908060090160149054906101000a900460ff1690508b565b6105c06117cb565b60405180610160016040528060015481526020018981526020018881526020018781526020018681526020018581526020018481526020018381526020018281526020013373ffffffffffffffffffffffffffffffffffffffff168152602001600180811115610659577f4e487b7100000000000000000000000000000000000000000000000000000000600052602160045260246000fd5b8152506003600060015481526020019081526020016000206000820151816000015560208201518160010190805190602001906106979291906117e5565b5060408201518160020190805190602001906106b49291906117e5565b5060608201518160030190805190602001906106d19291906117e5565b5060808201518160040190805190602001906106ee9291906117e5565b5060a082015181600501908051906020019061070b9291906117e5565b5060c08201518160060190805190602001906107289291906117e5565b5060e08201518160070190805190602001906107459291906117e5565b5061010082015181600801556101208201518160090160006101000a81548173ffffffffffffffffffffffffffffffffffffffff021916908373ffffffffffffffffffffffffffffffffffffffff1602179055506101408201518160090160146101000a81548160ff021916908360018111156107eb577f4e487b7100000000000000000000000000000000000000000000000000000000600052602160045260246000fd5b02179055509050507feb7cf75e76c3da239b1b46276986d1f8389590a31469320157b9b21d0ba39e4e60015489898989898989893360016040516108399b9a99989796959493929190611f03565b60405180910390a15050505050505050565b6000600154905090565b6060600080546108649061217c565b80601f01602080910402602001604051908101604052809291908181526020018280546108909061217c565b80156108dd5780601f106108b2576101008083540402835291602001916108dd565b820191906000526020600020905b8154815290600101906020018083116108c057829003601f168201915b5050505050905090565b6108ef61186b565b6003600083815260200190815260200160002060405180610160016040529081600082015481526020016001820180546109289061217c565b80601f01602080910402602001604051908101604052809291908181526020018280546109549061217c565b80156109a15780601f10610976576101008083540402835291602001916109a1565b820191906000526020600020905b81548152906001019060200180831161098457829003601f168201915b505050505081526020016002820180546109ba9061217c565b80601f01602080910402602001604051908101604052809291908181526020018280546109e69061217c565b8015610a335780601f10610a0857610100808354040283529160200191610a33565b820191906000526020600020905b815481529060010190602001808311610a1657829003601f168201915b50505050508152602001600382018054610a4c9061217c565b80601f0160208091040260200160405190810160405280929190818152602001828054610a789061217c565b8015610ac55780601f10610a9a57610100808354040283529160200191610ac5565b820191906000526020600020905b815481529060010190602001808311610aa857829003601f168201915b50505050508152602001600482018054610ade9061217c565b80601f0160208091040260200160405190810160405280929190818152602001828054610b0a9061217c565b8015610b575780601f10610b2c57610100808354040283529160200191610b57565b820191906000526020600020905b815481529060010190602001808311610b3a57829003601f168201915b50505050508152602001600582018054610b709061217c565b80601f0160208091040260200160405190810160405280929190818152602001828054610b9c9061217c565b8015610be95780601f10610bbe57610100808354040283529160200191610be9565b820191906000526020600020905b815481529060010190602001808311610bcc57829003601f168201915b50505050508152602001600682018054610c029061217c565b80601f0160208091040260200160405190810160405280929190818152602001828054610c2e9061217c565b8015610c7b5780601f10610c5057610100808354040283529160200191610c7b565b820191906000526020600020905b815481529060010190602001808311610c5e57829003601f168201915b50505050508152602001600782018054610c949061217c565b80601f0160208091040260200160405190810160405280929190818152602001828054610cc09061217c565b8015610d0d5780601f10610ce257610100808354040283529160200191610d0d565b820191906000526020600020905b815481529060010190602001808311610cf057829003601f168201915b50505050508152602001600882015481526020016009820160009054906101000a900473ffffffffffffffffffffffffffffffffffffffff1673ffffffffffffffffffffffffffffffffffffffff1673ffffffffffffffffffffffffffffffffffffffff1681526020016009820160149054906101000a900460ff166001811115610dc1577f4e487b7100000000000000000000000000000000000000000000000000000000600052602160045260246000fd5b6001811115610df9577f4e487b7100000000000000000000000000000000000000000000000000000000600052602160045260246000fd5b815250509050919050565b6000600360008381526020019081526020016000206040518061016001604052908160008201548152602001600182018054610e3f9061217c565b80601f0160208091040260200160405190810160405280929190818152602001828054610e6b9061217c565b8015610eb85780601f10610e8d57610100808354040283529160200191610eb8565b820191906000526020600020905b815481529060010190602001808311610e9b57829003601f168201915b50505050508152602001600282018054610ed19061217c565b80601f0160208091040260200160405190810160405280929190818152602001828054610efd9061217c565b8015610f4a5780601f10610f1f57610100808354040283529160200191610f4a565b820191906000526020600020905b815481529060010190602001808311610f2d57829003601f168201915b50505050508152602001600382018054610f639061217c565b80601f0160208091040260200160405190810160405280929190818152602001828054610f8f9061217c565b8015610fdc5780601f10610fb157610100808354040283529160200191610fdc565b820191906000526020600020905b815481529060010190602001808311610fbf57829003601f168201915b50505050508152602001600482018054610ff59061217c565b80601f01602080910402602001604051908101604052809291908181526020018280546110219061217c565b801561106e5780601f106110435761010080835404028352916020019161106e565b820191906000526020600020905b81548152906001019060200180831161105157829003601f168201915b505050505081526020016005820180546110879061217c565b80601f01602080910402602001604051908101604052809291908181526020018280546110b39061217c565b80156111005780601f106110d557610100808354040283529160200191611100565b820191906000526020600020905b8154815290600101906020018083116110e357829003601f168201915b505050505081526020016006820180546111199061217c565b80601f01602080910402602001604051908101604052809291908181526020018280546111459061217c565b80156111925780601f1061116757610100808354040283529160200191611192565b820191906000526020600020905b81548152906001019060200180831161117557829003601f168201915b505050505081526020016007820180546111ab9061217c565b80601f01602080910402602001604051908101604052809291908181526020018280546111d79061217c565b80156112245780601f106111f957610100808354040283529160200191611224565b820191906000526020600020905b81548152906001019060200180831161120757829003601f168201915b50505050508152602001600882015481526020016009820160009054906101000a900473ffffffffffffffffffffffffffffffffffffffff1673ffffffffffffffffffffffffffffffffffffffff1673ffffffffffffffffffffffffffffffffffffffff1681526020016009820160149054906101000a900460ff1660018111156112d8577f4e487b7100000000000000000000000000000000000000000000000000000000600052602160045260246000fd5b6001811115611310577f4e487b7100000000000000000000000000000000000000000000000000000000600052602160045260246000fd5b815250509050600081610120015190506000826000015111801561133a5750600154826000015111155b611379576040517f08c379a000000000000000000000000000000000000000000000000000000000815260040161137090611ea6565b60405180910390fd5b8161010001513410156113c1576040517f08c379a00000000000000000000000000000000000000000000000000000000081526004016113b890611e86565b60405180910390fd5b6001808111156113fa577f4e487b7100000000000000000000000000000000000000000000000000000000600052602160045260246000fd5b8261014001516001811115611438577f4e487b7100000000000000000000000000000000000000000000000000000000600052602160045260246000fd5b14611478576040517f08c379a000000000000000000000000000000000000000000000000000000000815260040161146f90611e46565b60405180910390fd5b3373ffffffffffffffffffffffffffffffffffffffff168173ffffffffffffffffffffffffffffffffffffffff1614156114e7576040517f08c379a00000000000000000000000000000000000000000000000000000000081526004016114de90611e66565b60405180910390fd5b3382610120019073ffffffffffffffffffffffffffffffffffffffff16908173ffffffffffffffffffffffffffffffffffffffff168152505060008261014001906001811115611560577f4e487b7100000000000000000000000000000000000000000000000000000000600052602160045260246000fd5b9081600181111561159a577f4e487b7100000000000000000000000000000000000000000000000000000000600052602160045260246000fd5b8152505081600360008581526020019081526020016000206000820151816000015560208201518160010190805190602001906115d89291906117e5565b5060408201518160020190805190602001906115f59291906117e5565b5060608201518160030190805190602001906116129291906117e5565b50608082015181600401908051906020019061162f9291906117e5565b5060a082015181600501908051906020019061164c9291906117e5565b5060c08201518160060190805190602001906116699291906117e5565b5060e08201518160070190805190602001906116869291906117e5565b5061010082015181600801556101208201518160090160006101000a81548173ffffffffffffffffffffffffffffffffffffffff021916908373ffffffffffffffffffffffffffffffffffffffff1602179055506101408201518160090160146101000a81548160ff0219169083600181111561172c577f4e487b7100000000000000000000000000000000000000000000000000000000600052602160045260246000fd5b02179055509050508073ffffffffffffffffffffffffffffffffffffffff166108fc349081150290604051600060405180830381858888f1935050505015801561177a573d6000803e3d6000fd5b507f7df4f9f8f8571ba3af7f72cf6a86fcd4e1759b4ffc0be8949647b138973f8b0e60015483602001518461010001513360006040516117be959493929190611fdf565b60405180910390a1505050565b600160008154809291906117de906121ae565b9190505550565b8280546117f19061217c565b90600052602060002090601f016020900481019282611813576000855561185a565b82601f1061182c57805160ff191683800117855561185a565b8280016001018555821561185a579182015b8281111561185957825182559160200191906001019061183e565b5b5090506118679190611913565b5090565b604051806101600160405280600081526020016060815260200160608152602001606081526020016060815260200160608152602001606081526020016060815260200160008152602001600073ffffffffffffffffffffffffffffffffffffffff1681526020016000600181111561190d577f4e487b7100000000000000000000000000000000000000000000000000000000600052602160045260246000fd5b81525090565b5b8082111561192c576000816000905550600101611914565b5090565b600061194361193e8461206a565b612039565b90508281526020810184848401111561195b57600080fd5b61196684828561213a565b509392505050565b600082601f83011261197f57600080fd5b813561198f848260208601611930565b91505092915050565b6000813590506119a7816122d8565b92915050565b600080600080600080600080610100898b0312156119ca57600080fd5b600089013567ffffffffffffffff8111156119e457600080fd5b6119f08b828c0161196e565b985050602089013567ffffffffffffffff811115611a0d57600080fd5b611a198b828c0161196e565b975050604089013567ffffffffffffffff811115611a3657600080fd5b611a428b828c0161196e565b965050606089013567ffffffffffffffff811115611a5f57600080fd5b611a6b8b828c0161196e565b955050608089013567ffffffffffffffff811115611a8857600080fd5b611a948b828c0161196e565b94505060a089013567ffffffffffffffff811115611ab157600080fd5b611abd8b828c0161196e565b93505060c089013567ffffffffffffffff811115611ada57600080fd5b611ae68b828c0161196e565b92505060e0611af78b828c01611998565b9150509295985092959890939650565b600060208284031215611b1957600080fd5b6000611b2784828501611998565b91505092915050565b611b39816120d9565b82525050565b611b48816120c7565b82525050565b611b57816120c7565b82525050565b611b6681612128565b82525050565b611b7581612128565b82525050565b6000611b868261209a565b611b9081856120a5565b9350611ba0818560208601612149565b611ba9816122b3565b840191505092915050565b6000611bbf8261209a565b611bc981856120b6565b9350611bd9818560208601612149565b611be2816122b3565b840191505092915050565b6000611bfa6014836120b6565b91507f476164676574206e6f7420617661696c61626c650000000000000000000000006000830152602082019050919050565b6000611c3a6016836120b6565b91507f42757965722063616e6e6f742062652073656c6c6572000000000000000000006000830152602082019050919050565b6000611c7a6015836120b6565b91507f4e6f7420656e6f7567682045746865722073656e7400000000000000000000006000830152602082019050919050565b6000611cba6011836120b6565b91507f496e76616c6964206761646765742049440000000000000000000000000000006000830152602082019050919050565b600061016083016000830151611d066000860182611e06565b5060208301518482036020860152611d1e8282611b7b565b91505060408301518482036040860152611d388282611b7b565b91505060608301518482036060860152611d528282611b7b565b91505060808301518482036080860152611d6c8282611b7b565b91505060a083015184820360a0860152611d868282611b7b565b91505060c083015184820360c0860152611da08282611b7b565b91505060e083015184820360e0860152611dba8282611b7b565b915050610100830151611dd1610100860182611e06565b50610120830151611de6610120860182611b3f565b50610140830151611dfb610140860182611b5d565b508091505092915050565b611e0f8161211e565b82525050565b611e1e8161211e565b82525050565b60006020820190508181036000830152611e3e8184611bb4565b905092915050565b60006020820190508181036000830152611e5f81611bed565b9050919050565b60006020820190508181036000830152611e7f81611c2d565b9050919050565b60006020820190508181036000830152611e9f81611c6d565b9050919050565b60006020820190508181036000830152611ebf81611cad565b9050919050565b60006020820190508181036000830152611ee08184611ced565b905092915050565b6000602082019050611efd6000830184611e15565b92915050565b600061016082019050611f19600083018e611e15565b8181036020830152611f2b818d611bb4565b90508181036040830152611f3f818c611bb4565b90508181036060830152611f53818b611bb4565b90508181036080830152611f67818a611bb4565b905081810360a0830152611f7b8189611bb4565b905081810360c0830152611f8f8188611bb4565b905081810360e0830152611fa38187611bb4565b9050611fb3610100830186611e15565b611fc1610120830185611b4e565b611fcf610140830184611b6c565b9c9b505050505050505050505050565b600060a082019050611ff46000830188611e15565b81810360208301526120068187611bb4565b90506120156040830186611e15565b6120226060830185611b30565b61202f6080830184611b6c565b9695505050505050565b6000604051905081810181811067ffffffffffffffff821117156120605761205f612284565b5b8060405250919050565b600067ffffffffffffffff82111561208557612084612284565b5b601f19601f8301169050602081019050919050565b600081519050919050565b600082825260208201905092915050565b600082825260208201905092915050565b60006120d2826120fe565b9050919050565b60006120e4826120fe565b9050919050565b60008190506120f9826122c4565b919050565b600073ffffffffffffffffffffffffffffffffffffffff82169050919050565b6000819050919050565b6000612133826120eb565b9050919050565b82818337600083830152505050565b60005b8381101561216757808201518184015260208101905061214c565b83811115612176576000848401525b50505050565b6000600282049050600182168061219457607f821691505b602082108114156121a8576121a7612255565b5b50919050565b60006121b98261211e565b91507fffffffffffffffffffffffffffffffffffffffffffffffffffffffffffffffff8214156121ec576121eb6121f7565b5b600182019050919050565b7f4e487b7100000000000000000000000000000000000000000000000000000000600052601160045260246000fd5b7f4e487b7100000000000000000000000000000000000000000000000000000000600052602160045260246000fd5b7f4e487b7100000000000000000000000000000000000000000000000000000000600052602260045260246000fd5b7f4e487b7100000000000000000000000000000000000000000000000000000000600052604160045260246000fd5b6000601f19601f8301169050919050565b600281106122d5576122d4612226565b5b50565b6122e18161211e565b81146122ec57600080fd5b5056fea2646970667358221220d57849ef3429b37c0f675e5524ba25cd4f2d25a53e2d3b1eef3e7990b6d107a864736f6c63430008000033",
  "immutableReferences": {},
  "source": "// SPDX-License-Identifier: MIT\r\npragma solidity ^0.8.0;\r\n\r\ncontract GadgetsContract {\r\n    enum gadgetStatus {\r\n        Sold,\r\n        Available\r\n    }\r\n\r\n    // Declared fields\r\n    string companyName;\r\n    uint gadgetCount;\r\n    gadgetStatus currentGadgetStatus;\r\n\r\n    // Mapping from ID to the relevant gadget deails\r\n    mapping(uint => GadgetDetails) public listOfGadgets;\r\n\r\n    // Structure / Information that consists in the gadget details\r\n    struct GadgetDetails {\r\n        uint gadgetId;\r\n        string gadgetName;\r\n        string gadgetPic;\r\n        string storageSpace;\r\n        string screenSize;\r\n        string gadgetColour;\r\n        string gadgetCategory;\r\n        string gadgetBrand;\r\n        uint price;\r\n        address ownerId;\r\n        gadgetStatus status;\r\n    }\r\n\r\n    struct ownerDetails {\r\n        address ownerId;\r\n        string firstName;\r\n        string lastName;\r\n        string mobileNo;\r\n        string email;\r\n    }\r\n\r\n    constructor() {\r\n        gadgetCount = 0;\r\n        currentGadgetStatus = gadgetStatus.Available;\r\n        companyName = \"ChainTech Gadgets\";\r\n    }\r\n\r\n    event GadgetCreated(\r\n        uint gadgetId,\r\n        string gadgetName,\r\n        string gadgetPic,\r\n        string storageSpace,\r\n        string screenSize,\r\n        string gadgetColour,\r\n        string gadgetCategory,\r\n        string gadgetBrand,\r\n        uint price,\r\n        address ownerId,\r\n        gadgetStatus status\r\n    );\r\n\r\n    event GadgetPurchased(\r\n        uint id,\r\n        string name,\r\n        uint price,\r\n        address payable owner,\r\n        gadgetStatus status\r\n    );\r\n\r\n    //Write a function addGadget with the relevant function parameters\r\n    function addGadget(\r\n        string memory _gadgetName,\r\n        string memory _gadgetPic,\r\n        string memory _storageSpace,\r\n        string memory _screenSize,\r\n        string memory _gadgetColour,\r\n        string memory _gadgetCategory,\r\n        string memory _gadgetBrand,\r\n        uint _price\r\n    ) public {\r\n        incrementGadgetCount(); // For the purpose of initializing the id based on the current count of how many gadgets there are\r\n        listOfGadgets[gadgetCount] = GadgetDetails(\r\n            gadgetCount,\r\n            _gadgetName,\r\n            _gadgetPic,\r\n            _storageSpace,\r\n            _screenSize,\r\n            _gadgetColour,\r\n            _gadgetCategory,\r\n            _gadgetBrand,\r\n            _price, // this should be the price\r\n            msg.sender,\r\n            gadgetStatus.Available\r\n        );\r\n        emit GadgetCreated(gadgetCount,\r\n            _gadgetName,\r\n            _gadgetPic,\r\n            _storageSpace,\r\n            _screenSize,\r\n            _gadgetColour,\r\n            _gadgetCategory,\r\n            _gadgetBrand,\r\n            _price, // this should be the price\r\n            msg.sender,\r\n            gadgetStatus.Available);\r\n    }\r\n\r\n    // Retrieve Gadget details according to the index set for the relevant item\r\n    function getGadgetDetails(\r\n        uint index\r\n    ) public view returns (GadgetDetails memory) {\r\n        return listOfGadgets[index];\r\n    }\r\n\r\n    function getNoOfGadgets() public view returns (uint) {\r\n        return gadgetCount;\r\n    }\r\n\r\n    function incrementGadgetCount() internal {\r\n        gadgetCount++;\r\n    }\r\n\r\n    function getCompanyName() public view returns (string memory) {\r\n        return companyName;\r\n    }\r\n\r\n    // Adding a function to purchase a gadget\r\n    // Add this event at the top of your contract for debugging purposes\r\n    event DebugLog(string message);\r\n\r\n    function purchaseGadget(uint _id) public payable {\r\n        // emit DebugLog(\"purchaseGadget called\");\r\n        GadgetDetails memory gadgetInfo = listOfGadgets[_id];\r\n\r\n        // emit DebugLog(\"gadgetInfo fetched\");\r\n        address payable seller = payable(gadgetInfo.ownerId);\r\n\r\n        require(\r\n            gadgetInfo.gadgetId > 0 && gadgetInfo.gadgetId <= gadgetCount,\r\n            \"Invalid gadget ID\"\r\n        );\r\n        // emit DebugLog(\"gadget ID is valid\");\r\n\r\n        require(msg.value >= gadgetInfo.price, \"Not enough Ether sent\");\r\n        // emit DebugLog(\"sufficient Ether sent\");\r\n\r\n        require(\r\n            gadgetInfo.status == gadgetStatus.Available,\r\n            \"Gadget not available\"\r\n        );\r\n        // emit DebugLog(\"gadget is available\");\r\n\r\n        require(seller != msg.sender, \"Buyer cannot be seller\");\r\n        // emit DebugLog(\"buyer is not seller\");\r\n\r\n        // The transfer of ownership and marking the gadget as sold\r\n        gadgetInfo.ownerId = payable(msg.sender);\r\n        gadgetInfo.status = gadgetStatus.Sold;\r\n        listOfGadgets[_id] = gadgetInfo;\r\n        // emit DebugLog(\"gadget ownership transferred and status updated\");\r\n\r\n        // Paying the seller\r\n        payable(seller).transfer(msg.value);\r\n        // emit DebugLog(\"seller paid\");\r\n\r\n        // Emitting the purchase event with the correct parameters\r\n        emit GadgetPurchased(\r\n            gadgetCount,\r\n            gadgetInfo.gadgetName,\r\n            gadgetInfo.price,\r\n            payable(msg.sender),\r\n            gadgetStatus.Sold\r\n        );\r\n        // emit DebugLog(\"GadgetPurchased event emitted\");\r\n    }\r\n}",
  "sourcePath": "C:\\Users\\simsh\\Documents\\BlockChain\\GA_MetaTest2\\contracts\\GadgetsContract.sol",
  "compiler": {
    "name": "solc",
    "version": "0.8.0+commit.c7dfd78e.Emscripten.clang"
  },
  "schemaVersion": "3.4.16",
  "updatedAt": "2024-02-25T04:46:04.561Z",
  "devdoc": {
    "kind": "dev",
    "methods": {},
    "version": 1
  },
  "userdoc": {
    "kind": "user",
    "methods": {},
    "version": 1
  }
}